:020000040800F2
:10000000D85D0020E9020008E31E0008F91A000884
:10001000E11E0008510700089922000800000000B6
:10002000000000000000000000000000290200089D
:10003000530700080000000085020008ED1E0008BC
:100040000303000803030008030300080303000878
:100050000303000803030008550700080303000812
:1000600003030008030300085B07000803030008FC
:100070000303000803030008030300080303000848
:100080000303000803030008030300080303000838
:100090000303000803030008030300080303000828
:1000A0000303000803030008030300080303000818
:1000B0000303000803030008030300080303000808
:1000C00003030008030300080303000803030008F8
:1000D00003030008030300080303000803030008E8
:1000E00003030008030300080303000803030008D8
:1000F0000303000803030008C51F000803030008EA
:1001000003030008030300080303000803030008B7
:100110000303000803030008AD1F0008B91F00080F
:100120000303000803030008030300080303000897
:100130000303000803030008030300080303000887
:100140000303000803030008030300080303000877
:100150000303000803030008030300080303000867
:100160000303000803030008030300080303000857
:100170000303000803030008030300080000000055
:10018000030300080303000800F002F800F03CF845
:100190000AA090E8000C82448344AAF10107DA45E2
:1001A00001D100F031F8AFF2090EBAE80F0013F0F8
:1001B000010F18BFFB1A43F001031847E83900008C
:1001C000083A0000103A24BF78C878C1FAD852071C
:1001D00024BF30C830C144BF04680C6070470000C1
:1001E0000023002400250026103A28BF78C1FBD840
:1001F000520728BF30C148BF0B6070471FB503F0DE
:1002000061FC1FBD10B510BD00F0D4F91146FFF719
:10021000F5FF02F056F800F0F2F903B4FFF7F2FF31
:1002200003BC00F0F5F900002C4B19680868B0E831
:10023000F04F80F30988BFF36F8F4FF0000080F319
:10024000118870470000000008480068006880F3CB
:1002500008884FF0000080F3148862B661B6BFF3DF
:100260004F8FBFF36F8F00DF00BF00BF08ED00E0CE
:10027000DFF80C00016841F470010160704700BFB5
:1002800088ED00E0EFF30980BFF36F8F134B1A681E
:100290001EF0100F08BF20ED108A20E9F04F10600B
:1002A00009B44FF0500080F31188BFF34F8FBFF3B4
:1002B0006F8F02F0D9FE4FF0000080F3118809BC67
:1002C00019680868B0E8F04F1EF0100F08BFB0ECD6
:1002D000108A80F30988BFF36F8F704728000020D1
:1002E000EFF3058070470000094880470948004740
:1002F000FEE7FEE7FEE7FEE7FEE7FEE7FEE7FEE7D6
:10030000FEE7FEE704480549054A064B7047000032
:100310009D1F000889010008D84B0020D85D0020EF
:10032000D84D0020D84D002053EA020C00F069801F
:100330002DE9F04B4FF00006002B1FBFB3FA83F5F9
:1003400003FA05F424FA05F65E4012BF1643B2FA2A
:1003500082F502FA05F4C5F120051EBF22FA05FC5C
:1003600044EA0C04203556EA044C4FEA144418BF02
:10037000641C4FF000084FF00009904271EB030C31
:1003800039D3002919BFB1FA81F701FA07F6B0FA9B
:1003900080F700FA07F6C7F120071EBF20FA07FC16
:1003A00046EA0C062037B6FBF4FCA7EB0507103F26
:1003B00007F01F0BCBF120060CFA0BFB2CFA06F60C
:1003C00044BFB3460026202FA4BF5E464FF0000B6B
:1003D0005BEA060C08BF4FF0010B19EB0B09ABFBF6
:1003E000027C48EB0608C01B06FB02CC0BFB03CCCF
:1003F00071EB0C01C1E70B46024641464846BDE899
:10040000F08B13B54FF000004FF00001AFF3008008
:10041000BDE81C407047032A40F2308010F0030C06
:1004200000F0158011F8013BBCF1020F624498BF47
:1004300011F801CB00F8013B38BF11F8013BA2F1E4
:10044000040298BF00F801CB38BF00F8013B11F05F
:10045000030300F02580083AC0F0088051F8043BFF
:10046000083A51F804CBA0E80810F5E7121D5CBF6C
:1004700051F8043B40F8043BAFF30080D20724BF9F
:1004800011F8013B11F801CB48BF11F8012B24BF33
:1004900000F8013B00F801CB48BF00F8012B704782
:1004A00010B5203AC0F00B80B1E81850203AA0E80F
:1004B0001850B1E81850A0E81850BFF4F5AF5FEA43
:1004C000027C24BFB1E81850A0E8185044BF18C9F6
:1004D00018C0BDE810405FEA827C24BF51F8043B9D
:1004E00040F8043B08BF7047D20728BF31F8023BF1
:1004F00048BF11F8012B28BF20F8023B48BF00F885
:10050000012B704702F0FF0343EA032242EA024252
:1005100000F02CB84FF0000200B513469446964602
:10052000203922BFA0E80C50A0E80C50B1F1200106
:10053000BFF4F7AF090728BFA0E80C5048BF0CC0B4
:100540005DF804EB890028BF40F8042B08BF704712
:1005500048BF20F8022B11F0804F18BF00F8012B84
:1005600070477047704770474FF000020429C0F091
:10057000128010F0030C3FF4CFAFCCF1040CBCF1AF
:10058000020F18BF00F8012BA8BF20F8022BA1EB27
:100590000C01FFF7C1BF5FEAC17C24BF00F8012B4B
:1005A00000F8012B48BF00F8012B70470048704746
:1005B000784B00207546FFF7F9FFAE460500694607
:1005C000534620F00700854618B020B5FFF79AFE85
:1005D000BDE820404FF000064FF000074FF0000844
:1005E0004FF0000B21F00701AC46ACE8C009ACE8C5
:1005F000C009ACE8C009ACE8C0098D46704710B529
:100600000446AFF300802046BDE81040FFF705BE6A
:1006100001491820ABBEFEE726000200704700002B
:10062000464910B54A6822F440324A604A68436835
:100630001A434A6001684A6822F480724A6001687D
:100640004A68036942EA03224A6001684A6822F064
:1006500040724A6001684A6883681A434A600168C8
:100660008A6822F400628A6001688A68C3681A4353
:100670008A60816A6FF07062D14201688A6822F0F4
:1006800070628A6001688A680CD0836A1A438A6043
:1006900001688A6822F040528A6001688A68C36AE9
:1006A0001A4301E022F040528A6001688A6822F011
:1006B00002028A6001688A68037E42EA43028A6015
:1006C00090F82010002901684A680FD042F40062B7
:1006D0004A6001684A6822F460424A6001684A68D8
:1006E000174C436A04EB43331A4301E022F40062DF
:1006F0004A600168CA6A22F47002CA620168CA6A62
:10070000838B104C04EB03531A43CA6201688A6856
:1007100022F400728A6001688A6890F8303042EAF8
:1007200043228A6001688A6822F480628A600168D4
:100730008A68406942EA8020886010BD0023014039
:1007400000E0FFFF0000F0FF012001F0D1FDFBE71A
:10075000FEE77047012000F0CBB9102000F0C8B9C7
:1007600072B6FEE730B5B3F5804F05D06FF070413B
:1007700040F82210002030BD8C690B688D6823433F
:100780004C688989240144EA0524234343EA014152
:1007900050F82230014C23401943E9E70000F0CF24
:1007A00010B50A6850F8223023F0010340F82230D7
:1007B0008C68082C23D000234A682243CC681C4351
:1007C0000B6922431A434B690E4C1A43CB691A43F7
:1007D0000B6A1A434B6A1A438B6A1A43CB6A1A4351
:1007E0000B6B1A438B691343CA6B09681A4350F8A1
:1007F0002130A343134340F82130002010BD402393
:10080000DAE700007FFF0F0030B5D1E9003443EA9A
:1008100004138C688D89240244EA054423430C8A1E
:10082000074D00EB820005EB045423430C7D6D0162
:1008300005EB0464896923430B434360002030BD0A
:100840000000F0FF78B50024009490F83C20012AC5
:1008500019D0012280F83C200A6807230568092A7C
:1008600013D9EE680A3A02EB420293409E43EE60CF
:100870000B788A680A3B03EB43039A400368DD6800
:100880002A43DA6010E0022078BD2E6902EB4202B2
:1008900093409E432E610B788A6803EB43039A4092
:1008A00003681D692A431A614A681F23072A13D265
:1008B00005686E6B521E02EB820293409E436E638C
:1008C0000B790A885B1E92B203EB83039A4003689C
:1008D0005D6B2A435A6327E005680D2A12D22E6BFE
:1008E000D21F02EB820293409E432E630B790A884B
:1008F000DB1F92B203EB83039A4003681D6B2A430C
:100900001A6311E0EE6A0D3A02EB820293409E43B5
:10091000EE620B790A880D3B92B203EB83039A4097
:100920000368DD6A2A43DA62164B0568144A9D4261
:1009300006D10D68122D03D1556845F48005556028
:1009400005689D4218D10B68102B01D0112B13D1D3
:10095000536843F400035360096810290CD10A4915
:100960000A4A0968B1FBF2F101EB8101490000E09C
:10097000491E00910029FBD180F83C40002078BD41
:1009800000230140002001402400002040420F00CD
:1009900070B504004FF0000503D0206C002610B1A4
:1009A00007E0012070BD204600F01CF8666484F862
:1009B0003C60206CC00610D4206C20F4885040F0BD
:1009C000020020642046FFF72BFE6664206C20F0B6
:1009D000020040F00100206400E0012584F83C6042
:1009E000284670BD10B586B0044614216846FFF74E
:1009F00091FD1149206888421CD1104800210268ED
:100A000042F480720260006800F4807005900B4828
:100A10001438026842F002020260006800F002002E
:100A20000590012000900320CDE9010169460448AA
:100A300000F06AF806B010BD0020014044380240C2
:100A4000000402402DE9F04186B014216846FFF70A
:100A500061FD20480168002939D1012101601E484B
:100A60000024016841F00101016000684FF48058E2
:100A700000F001000C27CDF80080CDE904700326BA
:100A800002250396CDE901546946144800F03CF86C
:100A90004FF68070CDE9000502AA694682E8D000D1
:100AA0000F4800F031F84CF23370CDE9000502AA8E
:100AB000694682E8D0000B4800F026F802AA694691
:100AC00082E8D000CDE90085074800F01DF806B0A7
:100AD000BDE8F081100000203838024000140240C8
:100AE00000100240000C0240001802407047000055
:100AF000044910B50A68024202D00860FFF7F6FF09
:100B000010BD0000143C01402DE9F84FDFF8BCA1F6
:100B10000022012503264FF00F090AF1040BAAF168
:100B2000040E00BF0B6805FA02F42340A34270D103
:100B30000F7907F00307012F01D0022F16D1876824
:100B40004FEA420806FA08FC27EA0C07D1F80CC065
:100B50000CFA08FC4CEA070CC0F808C04768A74329
:100B60000C79C4F3001494403C4344600C79E44392
:100B7000A4070AD0C4684FEA420C06FA0CF7BC433B
:100B80008F6807FA0CF72743C7600C7904F0030459
:100B9000022C12D1D40800EB840CDCF8204057075B
:100BA000FF0E09FA07F824EA0804D1F8108008FAC1
:100BB00007F848EA0408CCF8208004684FEA420CA1
:100BC00006FA0CF7BC430F7907F0030707FA0CF796
:100BD000274307604C6814F4403F70D03C4C2768B2
:100BE00047F480472760246822F0030704F4804418
:100BF0000094384C07EB040CDCF8084897074FEAE0
:100C0000177809FA08F7BC43334FB84202D10027DE
:100C100024E054E0314FB84201D101271EE0304FAB
:100C2000B84201D1022719E02E4FB84201D1032763
:100C300014E02D4FB84201D104270FE02B4FB842EA
:100C400001D105270AE02A4FB84201D1062705E065
:100C5000284FB84201D1072700E0082707FA08F714
:100C60002743CCF80878DAF800405746D1F804C09A
:100C70009C435FEACC2C00D51C433C60DBF8004071
:100C80005F46D1F804C09C435FEA8C2C00D51C431E
:100C90003C60DEF800407746D1F804C09C435FEA30
:100CA0008C3C00D51C433C60084F083F3C68D1F8A1
:100CB00004C09C435FEACC3C00D51C433C60521C02
:100CC000102AFFF42FAFBDE8F88F0000083C014068
:100CD000443802400030014000000240000402405D
:100CE00000080240000C02400010024000140240C4
:100CF00000180240001C02400AB1816170470904DB
:100D0000FBE70000014880687047000018000020E1
:100D10000248816802781144816070471800002001
:100D20000B4810B5016841F400710160016841F49D
:100D300080610160016841F480710160032000F06E
:100D40009FF80F2000F006F800F050F8002010BDCA
:100D5000003C024030B505461F4887B000240168BA
:100D600041F020010160006806A900F02000009019
:100D700001A800F031F90498A8B100F04DF9400045
:100D80001649174AB0FBF1F11648491E026040F2BD
:100D9000E732C0E90324C0E90114846100F0BCFB20
:100DA000040003D015E000F037F9E9E70D4800F042
:100DB0002DFC04000DD1372000F034F8102D07D29F
:100DC00000222946372000F03BF80748056000E084
:100DD000012407B0204630BD4038024040420F0099
:100DE00000140040140200201C0000200C4882B0B7
:100DF000016841F480410160006800F48040009087
:100E00000748001F016841F080510160006800221E
:100E100000F0805000900F21901E02B000F010B83A
:100E200044380240002809DB00F01F0201219140F4
:100E30004009800000F1E020C0F800117047000078
:100E4000F0B40E4B1B680C46C3F30223C3F1070535
:100E5000042D00D90425191D072901D2002300E023
:100E6000DB1E012606FA05F1491E214099409E40ED
:100E7000761E16403143F0BC01F00FBA0CED00E0D5
:100E8000064900F0070208684FF6FF03184040EAE1
:100E90000220034A10430860704700000CED00E098
:100EA0000000FA052DE9F0470E46050065D0DFF891
:100EB0001481D8F80000F7B200F00700B04207D262
:100EC00088F80070D8F8000000F00700B04254D154
:100ED00028683D4C810712D5400703D5206840F4AF
:100EE000E05020602878000703D5206840F4604077
:100EF00020602068A96820F0F0000843206028786E
:100F0000C0072DD0304968680839012812D002285E
:100F100013D0032811D00968890700292DDA216828
:100F200021F0030101432160FFF7ECFE814641F20D
:100F3000883A0EE009688903EFE709688901ECE760
:100F4000FFF7E0FEA0EB0901514502D90320BDE8FF
:100F5000F0872068696800F00C00B0EB810FEFD1DA
:100F6000D8F80010404601F00701B14207D90770D8
:100F7000006800F00700B04201D00120E7E72878C0
:100F8000400705D52068E96820F4E0500843206058
:100F90002878000706D52068296920F4604040EAD7
:100FA000C100206000F058F82168084AC1F303111D
:100FB000515CC8400649086006480068FFF7CAFE51
:100FC0000020C4E7003C024008380240603B0008B3
:100FD000240000201C0000200F2202600C4A13682D
:100FE00003F003034360136803F0F00383601368A6
:100FF00003F4E053C36012684FF4E05303EAD202F3
:1010000002610448006800F00700086070470000B3
:1010100008380240003C024004480549006809685D
:10102000044AC1F38221515CC8407047240000206B
:1010300008380240703B0008044805490068096808
:10104000044AC1F34231515CC8407047240000207B
:1010500008380240703B0008154810B5006810F0D1
:101060000C02144813D04110042A0FD0082A0ED1C4
:101070000F4C241F2268236802F03F025B0207D551
:101080002068C0F38810A0FB010106E0084610BDEF
:101090002168C1F38811A1FB00010023FFF744F987
:1010A0002168C1F30141491C4900B0FBF1F010BDBA
:1010B000083802400024F4002DE9F84F04006ED0F7
:1010C0002078DFF84C93C007A9F104054AD009F154
:1010D00004000168C1F38101012908D00068C0F350
:1010E000810002280AD1D9F80000400206D52868FC
:1010F000800337D560680028E1D033E06068B0F540
:10110000803F10D0B0F5A02F286810D020F4803098
:101110002860286820F4802028606068A8B1FFF764
:10112000F1FD06460DE0286840F48030F4E740F415
:1011300080202860F7E700BFFFF7E4FD801B6428EC
:1011400073D828688003F7D50CE0FFF7DBFD06466F
:1011500005E000BFFFF7D6FD801B6428F0D82868A3
:101160008003F7D42078DFF8AC8280074FF0000AC4
:101170003ED5A748001D016811F00C0F08D000688B
:10118000C0F3810002280BD1D9F80000400207D437
:101190002868800716D5E068012800D112E033E105
:1011A000E068B8B10120C8F80000FFF7ABFD0646C3
:1011B00005E000BFFFF7A6FD801B0228C0D8286805
:1011C0008007F7D52868216920F0F80040EAC100BF
:1011D00028600DE0C8F800A0FFF794FD064604E083
:1011E000FFF790FD801B02281FD828688007F7D4DE
:1011F0002078000722D5864F87486169703771B122
:1012000001210160FFF77EFD064604E0FFF77AFD4D
:10121000801B022809D838688007F7D50EE0C0F88F
:1012200000A0FFF76FFD064605E082E0FFF76AFDCC
:10123000801B02287DD838688007F7D420784007C3
:1012400068D5DFF8CCB100270BF13C0BDBF80000D0
:10125000C0000BD4DBF8001041F08051CBF8001037
:10126000DBF80000012700F0805000906B4E3068E2
:10127000C00510D4306840F480703060FFF742FD44
:10128000009005E0FFF73EFD0099401A022850D873
:101290003068C005F6D55E4EA0686C3601280FD0C8
:1012A0000528306810D020F001003060306820F050
:1012B00004003060A068B8B1FFF724FD00900FE093
:1012C000306840F00100F4E740F004003060F7E7D8
:1012D000FFF718FD0099411A41F28830814266D823
:1012E00030688007F4D50EE0FFF70CFD009007E0B2
:1012F000FFF708FD0099411A41F28830814256D823
:1013000030688007F4D42FB1DBF8001021F0805151
:10131000CBF80010A069C8B33D49091D0968C1F3A5
:10132000810102294AD00228504607D0C8F860003F
:1013300000E03CE0FFF7E6FC04463BE04746C8F827
:101340006000FFF7DFFC064605E000BFFFF7DAFCB0
:10135000801B02282BD828688001F7D4D4E9070124
:101360000843A16A2E4A490802EB0141626A41EA38
:101370008211084394F82C1040EA0161C9F800106A
:1013800001203866FFF7BEFC044606E03EE000BFE1
:10139000FFF7B8FC001B022809D828688001F7D5A0
:1013A00034E000BFFFF7AEFC001B022802D9032087
:1013B000BDE8F88F28688001F4D427E00128F7D031
:1013C000D9F80000E26900F4800191421CD1226A40
:1013D00000F03F01914217D147F6C071626A0140A7
:1013E000B1EB821F10D1A26A4FF0FF3300F44031FD
:1013F00003EB5202B1EB024F06D194F82C1000F02F
:101400007060B0EB016F01D00120D1E70020CFE781
:101410000438024000004742800E474200700040FE
:101420000000FFFF70B515460E46040003D094F887
:10143000490010B107E0012070BD002084F8480089
:10144000204600F01DF804F108012068FFF7A8F914
:101450003146A2682068FFF7D7F9D4E9010229468E
:10146000236BFFF77FF92168A06851F8202042F034
:10147000010241F82020012084F84900002070BDBD
:10148000FFF7E0BA7047704770B590F83C20012A2A
:1014900032D0012480F83C40022280F83D200368CD
:1014A0005A689D6822F070060A6832435A60134BEE
:1014B00002689A4214D0B2F1804F11D0104B9A4278
:1014C0000ED0104B9A420BD00F4B9A4208D00F4BC4
:1014D0009A4205D00E4B9A4202D00E4B9A4204D14A
:1014E000496825F080031943916080F83D40002150
:1014F00080F83C10084670BD022070BD000001401D
:101500000004004000080040000C004000040140BE
:10151000004001400018004010B5040003D094F8CA
:101520003D0010B107E0012010BD002084F83C0010
:10153000204600F01FF8022084F83D00211D20689D
:1015400000F046FD012084F8460084F83E0084F84F
:101550003F0084F8400084F8410084F8420084F899
:10156000430084F8440084F8450084F83D000020DE
:1015700010BD000010B586B0044614216846FEF781
:10158000C9FF1E4A2168002091420AD11C48016807
:1015900041F010010160006800F01000059006B0F5
:1015A00010BD184A9142FAD11549091D0A6842F046
:1015B00002020A60096801F0020105911049103920
:1015C0000A6842F004020A60096801F0040105910A
:1015D0004FF4807100910221CDE9011003900320A6
:1015E000049069460848FFF78FFA002205212E2053
:1015F000FFF726FC2E20FFF715FCD0E70010004077
:1016000040380240000401400008024090F83D10BC
:10161000012901D001207047022180F83D100168A6
:10162000CA6842F00102CA6000681149884214D0B9
:10163000B0F1804F11D00F4988420ED00E49884238
:101640000BD00E49884208D00D49884205D00D497B
:10165000884202D00C49884204D1816801F0070118
:10166000062903D0016841F00101016000207047A4
:10167000000001400004004000080040000C004051
:1016800000040140004001400018004070B50446CD
:1016900090F83C000025012817D0012684F83C6012
:1016A000022084F83D002068826822F0770222F44C
:1016B0007F4282600868502838D00DDC20284FD047
:1016C00005DC90B3102811D14AE0022070BD30280B
:1016D00046D040280AD13BE060282FD070280DD09A
:1016E000B0F5805F03D0B0F5005F12D0012584F81B
:1016F0003D60002084F83C00284670BDCB68D1E9ED
:101700000121206800F0CCFC2068816841F077015D
:1017100009E0CB68D1E90121206800F0C1FC206814
:10172000816841F480418160E1E719E0CA68496855
:10173000206800F0C7FC5021206806E0CA684968AC
:10174000206800F011FD6021206800F0B3FCCEE7B6
:10175000CA684968206800F0B5FC40212068F4E7B9
:10176000226801461046F0E770472DE9F041054632
:1017700090F83C0000260C46012810D0012085F886
:101780003C0072B1042A1CD0082A2CD00C2A50D05C
:101790000126002085F83C003046BDE8F08102209B
:1017A000FBE7D4E90012E368286800F09DFC286894
:1017B000816921F00C01816128688169A268114367
:1017C0000FE0D4E90012E368286800F0DFFC286825
:1017D000816921F44061816128688169A26841EAD8
:1017E00002218161D5E72868D4E9002C277B036AB0
:1017F000016A21F480710162C16923F4206321F040
:10180000030141EA0C0121F0F00C39074FF4206785
:101810004CEA116107EA02221A43C1610262286898
:10182000C16921F00C01C1612868C169A268114336
:101830002BE02868D4E90021E768036AD0F820C0CB
:101840002CF4805CC0F820C0D0F81CC023F42043E6
:101850002CF4407C4CEA012121F4704C4FF6FF71CE
:1018600001EA07314FF4204741EA0C0107EA02324E
:101870001A43C16102622868C16921F44061C161F3
:101880002868C169A26841EA0221C16181E710B5F7
:10189000040003D094F83D0010B107E0012010BD12
:1018A000002084F83C00204600F01EF8022084F856
:1018B0003D00211D206800F08BFB012084F84600CC
:1018C00084F83E0084F83F0084F8400084F841002A
:1018D00084F8420084F8430084F8440084F845000A
:1018E00084F83D00002010BD70472DE9F04104460A
:1018F0000068C66805694FF00007A90713D5B1074E
:1019000011D5F91E016101202077206880698007C8
:10191000204602D0FFF728FF04E000F07EF82046C2
:1019200000F07CF82777680716D5700714D5216872
:101930006FF004000861022020772068806910F4AD
:10194000407F204602D0FFF70FFF04E000F065F86B
:10195000204600F063F82777280715D5300713D500
:1019600021686FF008000861042020772068C069B2
:101970008007204602D0FFF7F7FE04E000F04DF8A4
:10198000204600F04BF82777E80616D5F00614D568
:1019900021686FF010000861082020772068C06976
:1019A00010F4407F204602D0FFF7DEFE04E000F096
:1019B00034F8204600F032F82777E80708D0F0071F
:1019C00006D021686FF001000861204600F028F879
:1019D000280608D5300606D521686FF0800008611A
:1019E0002046FFF74FFD680608D5700606D521682A
:1019F0006FF040000861204600F01CF8A8060AD5E8
:101A0000B00608D521686FF0200008612046BDE8C7
:101A1000F041FFF738BDBDE8F08170477047000026
:101A200000680349884201D1FFF772B9704700008E
:101A300000140040704770B5040004D094F83D00D5
:101A4000002510B106E0012070BD84F83C5020460E
:101A500000F01CF8022084F83D00204600F0B2FBA4
:101A60002068016921F4804101612068416921F009
:101A70002A0141612068C16841F40051C1602564B8
:101A8000012084F83D00002070BD000010B586B034
:101A9000044614216846FEF73DFD1449206888423B
:101AA00021D113480021026842F010020260006850
:101AB00000F0100005900E481438026842F0010250
:101AC0000260006800F0010005904FF4E0600090B3
:101AD0000220CDE90101032003900720049069460C
:101AE0000448FFF711F806B010BD000000100140D7
:101AF0004438024000000240FEE700001FB500210C
:101B00001648009101910291134A039102604FF42B
:101B10008032C0E9012101240161047680F820109F
:101B20000F4AC0E90A21C461C16080F830104461E5
:101B3000FEF72EFF08B1FEF713FE0820CDE90004E2
:101B40000320029069460548FEF77CFE002801D07C
:101B5000FEF706FE1FBD000000200140A800002087
:101B60000100000F10B50E4A00210E4800F0FCFBEA
:101B70000D4C0B4A0021206024320C4800F0F4FB8D
:101B8000074A606048320021094800F0EDFB044A32
:101B9000A0606C320021074800F0E6FBE06010BD59
:101BA000D03A0008E51E00080000002049070008A0
:101BB000912C0008BB22000810B58EB01C2168468D
:101BC000FEF7A8FC1C2107A8FEF7A4FC1A484FF05A
:101BD00020411022016019494160062181600021E5
:101BE000C160C0E904128161C16113020162C0E9F0
:101BF00009139302C0E90B134163816341640F2011
:101C00003C230090CDE9010303AC112384E80E00CE
:101C100009240691CDE907400AA8099480E80E003E
:101C20000D9107AA69460448FFF7FCFB002801D084
:101C3000FEF796FD0EB010BDF0000020040100A0DC
:101C40002DE9F04F87B014216846FEF763FC534836
:101C50000026016841F010010160016801F01001E7
:101C60000591016841F004010160016801F004017F
:101C70000591016841F020010160016801F0200137
:101C80000591016841F080010160016801F0800167
:101C90000591016841F001010160016801F0010155
:101CA0000591016841F002010160016801F0020143
:101CB0000591016841F008010160016801F0080127
:101CC0000591016841F0400101600068DFF8D0A093
:101CD00000F040004FF4C0650590012229465046AF
:101CE000FFF70AF8DFF8BCB04FF400480022414685
:101CF0005846FFF701F84FF40069002249462A4888
:101D0000FEF7FAFF10204FF48817CDE900070224F0
:101D1000694602942548FEF7F7FE00950125CDE9B6
:101D20000156694650460396FEF7EEFE0095CDE952
:101D3000017469461C48FEF7E7FECDF80080039663
:101D4000CDE9015469465846FEF7DEFECDF8009015
:101D5000CDE90154694614480395FEF7D5FE4020AD
:101D60008DE8510003200390072004906946104835
:101D7000FEF7CAFE002205210620FFF761F80620C3
:101D8000FFF750F8002205210A20FFF759F80A2032
:101D9000FFF748F807B0BDE8F08F00003038024088
:101DA0000014024000040240000002400010024003
:101DB000000C02401CB500240E4800940C4901940C
:101DC00001605321C0E9011409218461C160FFF75A
:101DD000A3FB08B1FEF7C4FC0094694605480194D2
:101DE000FFF752FB002801D0FEF7BAFC1CBD000033
:101DF000001000404001002010B58AB0002428489F
:101E0000049405940694079408940994009401940A
:101E10000294224903940160A721C0E901144FF6FE
:101E2000FF71C0E9031444618461FFF775FB08B1D9
:101E3000FEF796FC4FF48050049004A91848FFF771
:101E400025FC08B1FEF78CFC1548FFF720FD08B112
:101E5000FEF786FC089408A911480994FFF714FBC3
:101E600008B1FEF77DFC0120CDE900400294082274
:101E700069460B480394FFF778FC08B1FEF770FC45
:101E80000220009001900C2269460548FFF76DFC86
:101E9000002801D0FEF764FC0AB010BD0004014028
:101EA000880100200D4810B50B4901604FF4E13165
:101EB0004160002181600C22C160C0E9041281618F
:101EC000C1610162FFF7B7FD002803D0BDE81040F3
:101ED000FEF746BC10BD000000100140D0010020FC
:101EE000FEE7FEE7012000F003FAFBE710B54FF034
:101EF000E020006901F030FC012803D0BDE810406B
:101F000001F05EB910BD000030B593B030216846D5
:101F1000FEF700FB14210CA8FEF7FCFA1D48002573
:101F2000016841F080510160006800F0805011901C
:101F30001948016841F4804101600068022400F4FE
:101F40008040119001200090000401908001CDE9B3
:101F5000064008AA0420A82182E813000B906846D6
:101F6000FFF7AAF808B172B6FEE70CA90F2081E8C6
:101F700031004FF4A0500F904FF480501090052185
:101F80000CA8FEF78FFF002801D072B6FEE713B051
:101F900030BD000040380240007000400248016837
:101FA00041F470010160704788ED00E00148FFF7DF
:101FB0009CBC0000304B00200148FFF796BC00009D
:101FC000140200200148FFF790BC000088010020A7
:101FD000F0B50268274B284D284E294F294C4FF069
:101FE000804C984209D0604507D0A84205D0B04245
:101FF00003D0B84201D0A04204D122F0700E4A684A
:1020000042EA0E0298421BD0604519D0A84217D070
:10201000B04215D0B84213D0A04211D01A4DA842F8
:102020000ED01A4DA8420BD0194DA84208D0194D18
:10203000A84205D0184DA84202D0184DA84203D19D
:1020400022F44075CA682A434D6922F080022A436F
:102050008D68C5620D688562984201D0A04201D1A9
:1020600009690163016841F00401016001214161D6
:102070000260F0BD00000140000400400008004084
:10208000000C0040000401400040014000440140B9
:102090000048014000180040001C004000200040A3
:1020A00010B5846842EA032224F47F440A432243A1
:1020B000826010BD826822F070020A4342F007017C
:1020C0008160704710B5036A046A24F00104046259
:1020D000846924F0F00444EA021423F00A020A435B
:1020E0008461026210BD000070B5056A046A24F0C4
:1020F000010404628469154EB04214D0B0F1804FDF
:1021000011D0134EB0420ED0124EB0420BD0124E30
:10211000B04208D0114EB04205D0114EB04202D0AC
:10212000104EB04203D124F00304144301E044F004
:1021300001041A0724F0F00444EA126225F00A03AD
:1021400001F00A0119438261016270BD0000014083
:102150000004004000080040000C00400004014062
:10216000004001400018004010B5036A046A24F0E2
:1021700010040462846923F0A00324F4704444EA48
:10218000023243EA01118261016210BD30B5046A76
:10219000056A25F010050562856925F4407545EA54
:1021A000022222F470454FF6FF7202EA033224F055
:1021B000A0032A43A02404EA0111194382610162A9
:1021C00030BD00002DE9F04104460068C16821F0EF
:1021D0000C01C16021680869E56820F47C52D4E9EB
:1021E00006031843236A2B431843104340F400604E
:1021F00008612068C16849F20C6291432369A268B2
:102200001A4363690B431A4342F40041C1602068DA
:10221000416921F4407141611D4920680027192658
:1022200064254FF03208884202D01A49884202D110
:10223000FEF702FF01E0FEF7EFFE61684A18A0FB1F
:10224000060147EB0703FEF76FF80146B0FBF5F018
:102250000301B1FBF5F06FF01802504301EB800071
:1022600008EBC000B0FBF5F000F0F80003EB400312
:10227000B1FBF5F0504301EB800008EBC000B0FB70
:10228000F5F0216800F0070018448860BDE8F0818F
:102290000010014000140140FEE70907090E002864
:1022A00004DB00F1E02080F80014704700F00F001C
:1022B00000F1E02080F8141D7047012000F018F8AC
:1022C000FBE7FEF72DFDFFF71FFEFFF7B9FCFFF759
:1022D00015FCFFF771FCFFF78FFDFFF76BFDFFF7B4
:1022E000E1FD00F013F8FFF73DFC00F021F8FEE7F8
:1022F00010B5EFF3058111B16FF0050403E0002480
:1023000008B100F0FDFD204610BD0000EFF3058090
:1023100010B16FF0050070470448016811B14FF02B
:10232000FF307047012101600020704778000020D5
:1023300010B5EFF3058010B16FF0050010BD08482F
:102340000168012902D04FF0FF3010BD054A00217D
:1023500082F8141D0221016000F03AFE002010BD39
:10236000780000200BE000E02DE9FF414FEA010377
:102370004FF00005EFF30581039549BB40B380277B
:10238000182100244AB3166806B1344696691EB176
:102390003146761E382E02D21679F60703D0002079
:1023A00004B0BDE8F081566906B1B708D2F808C09C
:1023B000BCF1000F0DD0D5685C2D18D312693AB16D
:1023C00036B18DE806103A46214601F09AF903909D
:1023D0000DE0D6685EB912694AB903AACDE90012C8
:1023E000BAB2214601F060F9012800D003950398A4
:1023F000D6E700002DE9F041134C0F460546E6688C
:102400002068001D00F048FC681C07D137B1216826
:10241000BDE8F0410D48091D00F08EBC2068354430
:10242000B5424560216805D2A06BBDE8F041091DA9
:1024300000F06ABC606B091D00F066FCA06A854272
:1024400000D2A562BDE8F081280000204C070020E2
:102450002DE9F041054600F07BFC2D4CA068401CA6
:10246000A06020682B4F10B1606930B32BE025606D
:10247000A068012827D1002606EB860007EB800024
:1024800000F034FC761C382EF6D3234800F02EFCE6
:102490002148143000F02AFC1F48283000F026FCA8
:1024A0001D483C3000F022FC1B48503000F01EFC60
:1024B000194860631430A06305E02068E96AC06AC7
:1024C000884200D82560606A401C60626864E86ADF
:1024D0002169884200D9206100EB800007EB800071
:1024E000291D00F029FC00F053FC606900280CD085
:1024F0002068E96AC06A884207D208494FF08050D4
:102500000860BFF34F8FBFF36F8FBDE8F08100000D
:10251000280000209C020020FC06002004ED00E0C2
:1025200038B500F015FC104C2068C8B90F4800F011
:10253000DDFB0E48143000F0D9FB0C48E06014308D
:1025400020610A4B0020F03B009003F15002102163
:102550000A2000F04BFE206010B105A100F09AFCAB
:10256000BDE8384000F014BC640000205008002092
:10257000546D72510000000030B4026C0B46002A0A
:102580000BD0C1681144C1608468A14201D30168C5
:10259000C16030BC1846FDF73EBF30BC70472DE926
:1025A000F041856B174604460026026C82B1C7B124
:1025B000E068FDF730FFE168206C091AE1602268ED
:1025C000914202D2A168081AE060022F16D017E0EB
:1025D0002068A8B9A06801F037F906460020A0607D
:1025E0000EE06068FDF717FF216C606808446060CA
:1025F000A168884204D32068606001E005B16D1EC7
:102600006D1CA5633046BDE8F08110B5044690F816
:10261000590058B101280CD002280FD0502080F367
:102620001188BFF34F8FBFF36F8FFEE7206B00F071
:10263000C3FB2046BDE8104000F0BEBB10BD00004B
:1026400010484FF47051420706D0C01D0D4920F0CC
:102650000700411AC1F570510B4A00230144C2E939
:1026600000030839183A21F0070111604B600B6034
:102670000B1AC0E9001393604FF0004053605061A3
:1026800070470000300F002094000020144E154CBD
:10269000A6F29C474FF08058DFF84C9012E000BF44
:1026A00000F056FBF068C568281D00F0F5FAA06838
:1026B000401EA0606068401E606000F069FB284614
:1026C000FFF7A3FF60680028EAD138680128F9D92C
:1026D000C9F80080BFF34F8FBFF36F8FF2E70000A0
:1026E000380700202800002004ED00E070B51D46EA
:1026F000049C51B1C4F80020C4E90F010121204617
:1027000000F0A8FD84F84C5070BD2460F4E7000090
:102710002DE9F05F8846DDE90B941546834691006C
:102720009A460A9EA522206BFDF7ECFE6FF003018E
:10273000206B01EB8501084420F00707780707D0DC
:10274000502080F31188BFF34F8FBFF36F8FFEE7E8
:102750000025B8F1000F0FD05FF00000221818F824
:10276000001082F8341018F8001011B1401C102825
:10277000F4D384F8435001E084F83450382E00D369
:102780003726E662C4E91365201D00F0BAFA04F1A9
:10279000180000F0B6FA2461C6F138006462A06146
:1027A000656584F8585052465946384600F05AFA42
:1027B0002060B9F1000F01D0C9F80040BDE8F09FDA
:1027C00030B5114900E011460A688242FBD34B68DC
:1027D0005C18844203D14068184448600846436846
:1027E0001C18944209D1084C183C2468A24209D014
:1027F00052681A4442600A6812680260814200D03E
:10280000086030BD0460F9E79400002070B5002432
:1028100041600B4D0061914206D8D11A8269914204
:1028200006D2011D286907E09A4203D2994201D3DA
:10283000012403E0011DE86800F066FA204670BD3F
:102840006400002010B5044600F082FAA06B28B1A5
:102850005FF0000400F09CFA204610BD0124F9E767
:1028600030B589B03C4D6EE00498002806DADDE909
:102870000601059A90470498002864DB069C60696D
:1028800010B1201D00F008FA03A800F0D7F80246A6
:1028900004980A2857D2DFE800F00505052D334AD1
:1028A00005052D3394F8280040F0010084F8280035
:1028B0000599A069059B01442046FFF7A7FF68B36F
:1028C000216A2046884794F8280040073BD500201D
:1028D00000900598A169002342181946204601F08E
:1028E000BDF8D8B9502080F31188BFF34F8FBFF3E4
:1028F0006F8FFEE714F8280F20F00100207022E00F
:1029000094F8280040F0010084F828000598A061A0
:1029100028B1811813462046FFF778FF13E05020B6
:1029200080F31188BFF34F8FBFF36F8FFEE794F8EA
:102930002800810703D4204600F03EFA03E020F08F
:10294000010084F82800002204A9286800F0D6FDC0
:10295000002889D109B030BD640000202DE9FC4178
:102960000F46054600F078FB01A800F067F8044622
:10297000019818B100F0E0FFBDE8FC81254EAFB131
:1029800030690068D0B30027291B3A46306800F050
:1029900095FA00F0D1FF0028EED11F494FF080508A
:1029A0000860BFF34F8FBFF36F8FE5E7A542EBD809
:1029B00000F0C2FFF0682746C068C468201D00F020
:1029C0006BF994F82800410719D5A0692B464119E5
:1029D0003A462046FFF71AFFA8B1002003460146F9
:1029E00000902A46204601F039F860B9502080F363
:1029F0001188BFF34F8FBFF36F8FFEE707E020F022
:102A0000010084F82800216A20468847B4E701279E
:102A1000BAE700006400002004ED00E00648416BC6
:102A2000096829B1416BC968C96849688162704702
:102A30004FF0FF31FAE700002800002070B505468E
:102A400000F098FE064E0446B068844203D200F0BF
:102A500009F8012000E0002028602046B46070BD25
:102A600064000020F8B5194D20E0C068C46806680D
:102A7000201D00F011F9216A2046884794F82800AB
:102A8000400713D5A0693044B04206D92461606084
:102A9000211DE86800F038F908E0002003460146EF
:102AA00000903246204600F0D9FF38B1E86801684E
:102AB0000029DAD12969C5E90310F8BD502080F357
:102AC0001188BFF34F8FBFF36F8FFEE764000020C4
:102AD00008484068401C4FF0500080F3118804D033
:102AE000BFF34F8FBFF36F8FFEE7BFF34F8FBFF37F
:102AF0006F8FFEE79C000020074CE068016841B141
:102B0000C0680021D0F80000FFF728FFFFF7A8FEFB
:102B1000F3E701210020F7E7640000202DE9F041F0
:102B2000044600F015F994F9455004F1240609E033
:102B3000606A48B1304600F0C7FE08B100F00EFAF6
:102B40006D1E6DB2002DF3DC4FF0FF3684F845604A
:102B500000F01EF900F0FCF894F9445004F110075D
:102B600009E0206948B1384600F0AEFE08B100F037
:102B7000F5F96D1E6DB2002DF3DC84F84460BDE8FC
:102B8000F04100F005B900002DE9F04105460027AD
:102B900000F062FA324E306808B9FFF751FD7069F3
:102BA00005424ED1C5B3083568070ED005F00700C1
:102BB000C0F108000544680707D0502080F3118851
:102BC000BFF34F8FBFF36F8FFEE72DB37068854261
:102BD00037D82348183001460C6801E020460C46DF
:102BE0006168A94202D221680029F7D131688C427C
:102BF00027D007682168016060680837411B1029E9
:102C00000FD96019420708D0502080F31188BFF314
:102C10004F8FBFF36F8FFEE713E041606560FFF7F2
:102C2000CFFD61687068401A7060B268904200D24F
:102C3000B060706901430020C4E90001F068401CE5
:102C4000F06000F079FE780707D0502080F31188FB
:102C5000BFF34F8FBFF36F8FFEE73846BDE8F081BB
:102C60007C00002010B5031F4FF080741C601B1FF8
:102C700021F001011960191F044B0B6014390A601F
:102C8000091F6FF0020244380A6010BDD12A000803
:102C90000120FFF72DFBFBE7D0E9013201699A60C3
:102CA000D0E901235A604A68824201D182684A60B1
:102CB000002202610868401E086008687047000032
:102CC000034B036003F15C000860802010607047D4
:102CD00078080020044B036003F15C0008604FF4A7
:102CE0008070106070470000D40A002000F10801D5
:102CF0004FF0FF32C0E90112C160016100210160A3
:102D0000704700210161704730B50B685A1C02D032
:102D100000F1080202E0026904E0224654682568D6
:102D20009D42FAD953684B6099608A60516008618E
:102D30000168491C016030BD42684A6093688B603D
:102D400093685960916008610168491C016070478F
:102D5000502080F31188BFF34F8FBFF36F8F0A4964
:102D60004868401C486001280CD10848006810F0F1
:102D7000FF0F07D0502080F31188BFF34F8FBFF3B0
:102D80006F8FFEE7704700009C00002004ED00E01C
:102D90000849486828B1401E486001D180F3118875
:102DA0007047502080F31188BFF34F8FBFF36F8FB0
:102DB000FEE700009C00002070B500282AD0164DC8
:102DC000A0F1080460686969084207D1502080F3C7
:102DD0001188BFF34F8FBFF36F8FFEE722683AB1C0
:102DE000502080F31188BFF34F8FBFF36F8FFEE742
:102DF0008843606000F030F9606869680844686082
:102E00002046FFF7DDFC2869401C2861BDE87040C2
:102E100000F092BD70BD00007C0000204FF0E0206B
:102E200000210161816105494FF47A720968B1FBA3
:102E3000F2F1491E41610721016170472400002021
:102E400010B5FDF74DFA114910280ED300F1E0201E
:102E500090F8F0030A78904207D2502080F311884E
:102E6000BFF34F8FBFF36F8FFEE709480068896893
:102E700000F4E060884207D9502080F31188BFF346
:102E80004F8FBFF36F8FFEE710BD00009C00002046
:102E90000CED00E010B5084B002200BF53F83240A3
:102EA0001CB1521C082AF9D310BD43F8321003EBB1
:102EB000C201486010BD00005C02002070B51546DC
:102EC0000E460446FFF744FF94F944100020491CC5
:102ED00001D184F8440094F94510491C01D184F8CB
:102EE0004500FFF755FFA06B28B92A46314604F18B
:102EF000240000F051F82046BDE87040FFF70EBEF8
:102F000010B5020014D00F48006B38B1502080F388
:102F10001188BFF34F8FBFF36F8FFEE700F09CF86F
:102F200000211046FFF766FA00F006FD002807D1E1
:102F300005494FF080500860BFF34F8FBFF36F8F8C
:102F400010BD00002800002004ED00E002490A6ADC
:102F50000260C968416070472800002001490120D3
:102F6000C86170472800002010B50C4650B10949CF
:102F700009681831FFF7C8FE2046BDE8104001215E
:102F8000FFF738BA502080F31188BFF34F8FBFF39B
:102F90006F8FFEE72800002070B514460D4668B11B
:102FA0000A4909681831FFF7C7FE0CB14FF0FF3529
:102FB00021462846BDE87040FFF71CBA502080F338
:102FC0001188BFF34F8FBFF36F8FFEE728000020FB
:102FD00030B587B00024039405AA04A903A804947B
:102FE000FFF76EFEDDE903010094CDE90110002337
:102FF00015A11748059A00F084FB164D0028E862D9
:103000001FD000F0FBFC012809D0401C19D1502032
:1030100080F31188BFF34F8FBFF36F8FFEE750200F
:1030200080F31188BFF34F8FBFF36F8F4FF0FF30E6
:10303000A86201206861EC6007B0BDE8304000F094
:1030400045B807B030BD000049444C4500000000C1
:103050008D260008280000200248016B491C0163EE
:103060007047000028000020164810B5016B11B110
:103070000121C16110BD0021C1610169124A01E055
:10308000B9B1491E01EB810352F82330002BF7D070
:1030900001EB810302EB830202F1080453685B68D1
:1030A0005360A34201D15B685360DA68026001613A
:1030B00010BD502080F31188BFF34F8FBFF36F8F87
:1030C000FEE70000280000209C0200201CB53748C5
:1030D0000168374A914207D1502080F31188BFF32D
:1030E0004F8FBFF36F8FFEE700683149491E88425A
:1030F00007D1502080F31188BFF34F8FBFF36F8F3C
:10310000FEE72C4908780190FF20087008788DF8B8
:1031100000009DF800009DF8002000F0F0009042B3
:1031200007D0502080F31188BFF34F8FBFF36F8F0C
:10313000FEE79DF80000204C00F0500020700720B2
:10314000A06005E09DF8002052008DF80020401E90
:103150009DF800201206F5D4A060032807D0502067
:1031600080F31188BFF34F8FBFF36F8FFEE74FF4EB
:103170004070A060019808700C482030016841F44C
:1031800070010160016841F070410160FFF746FE87
:1031900000206060FDF76CF80848016841F040418C
:1031A0000160FDF751F800201CBD000000ED00E0BB
:1031B00071C20F4100E400E09C00002034EF00E009
:1031C00010B5502080F31188BFF34F8FBFF36F8F7E
:1031D00000F0D6FA18B104494FF080500860002082
:1031E00080F3118810BD000004ED00E038B5049DA7
:1031F00018B153B1CAB181B120E0502080F31188D9
:10320000BFF34F8FBFF36F8FFEE7502080F311881D
:10321000BFF34F8FBFF36F8FFEE7502080F311880D
:10322000BFF34F8FBFF36F8FFEE739B1502080F3AC
:103230001188BFF34F8FBFF36F8FFEE750241C46FA
:10324000012384F846302B460094FFF74FFA2046BE
:1032500038BD000070B50D46040025D0FFF778FD9D
:10326000D4E90F20216802FB0011A1600021A163B5
:10327000216861600A46D4E90F01401E00FB01216C
:10328000E16021464FF0FF3001F8440F487004F12F
:1032900010008DB1FFF72AFD04F12400FFF726FD91
:1032A000FFF776FD012070BD502080F31188BFF339
:1032B0004F8FBFF36F8FFEE721690029F0D000F038
:1032C00003FB0028ECD004494FF080500860BFF3A6
:1032D0004F8FBFF36F8FE3E704ED00E02DE9FF4769
:1032E00082B01D468A464FF00008040003D0BAF1B0
:1032F000000F08D011E0502080F31188BFF34F8FEA
:10330000BFF36F8FFEE7206C38B1502080F3118837
:10331000BFF34F8FBFF36F8FFEE7022D0AD1E06B33
:10332000012807D0502080F31188BFF34F8FBFF3DF
:103330006F8FFEE700F010FA3F4F4FF000094FF09B
:10334000805648B9049838B1502080F31188BFF3F3
:103350004F8FBFF36F8FFEE7FFF7FAFCA06BE16BB7
:10336000884207D3022D05D00498D0B1B8F1000FE0
:103370001AD01EE02A4651462046FFF710F9616A2E
:1033800019B104F1240000F09FFA20B13E60BFF3B0
:103390004F8FBFF36F8FFFF7FBFC012006B0BDE836
:1033A000F087FFF7F5FC22E06846FFF7CFFD4FF00E
:1033B0000108FFF7EDFCFFF74FFEFFF7C9FC94F99A
:1033C0004400401C01D184F8449094F94500401C0D
:1033D00001D184F84590FFF7DBFC04A9684600F0B2
:1033E00029F930B12046FFF799FB00F0A5FA00203B
:1033F000D4E7FFF7ADFCA06BE16B884213D1FFF778
:10340000C7FC04F110000499FFF7AEFD2046FFF75A
:1034100085FB00F091FA00289ED13E60BFF34F8FEC
:10342000BFF36F8F98E7FFF7B3FC2046FFF776FBFB
:1034300000F082FA90E7000004ED00E02DE9F0478B
:103440001F4690468946040003D0B9F1000F08D00A
:1034500011E0502080F31188BFF34F8FBFF36F8FBF
:10346000FEE7206C38B1502080F31188BFF34F8FF6
:10347000BFF36F8FFEE7022F0AD1E06B012807D060
:10348000502080F31188BFF34F8FBFF36F8FFEE79B
:10349000FFF7D6FC5020EFF3118680F31188BFF3BD
:1034A0004F8FBFF36F8FA06BE16B884206D3022F63
:1034B00004D0002086F31188BDE8F08794F94550C8
:1034C000A06B3A4649462046FFF769F8681C04D0CD
:1034D0006D1C84F845500120ECE7606A0028FAD0A2
:1034E00004F1240000F0F0F90028F4D0B8F1000F46
:1034F000F1D00121C8F80010EDE700002DE9F747F1
:10350000002683B08A46040003D0BAF1000F08D029
:1035100011E0502080F31188BFF34F8FBFF36F8FFE
:10352000FEE7206C38B1502080F31188BFF34F8F35
:10353000BFF36F8FFEE700F00FF9DFF8F4804FF074
:1035400000094FF0805748B9059838B1502080F3F2
:103550001188BFF34F8FBFF36F8FFEE7FFF7F8FBC4
:10356000A56BC5B151462046FFF706F86D1EA56351
:10357000206950B104F1100000F0A6F928B1C8F894
:103580000070BFF34F8FBFF36F8FFFF701FC012077
:1035900006B0BDE8F087059808B11EB106E0FFF758
:1035A000F7FB27E06846FFF7D1FC0126FFF7F0FBA9
:1035B000FFF752FDFFF7CCFB94F94400401C01D10A
:1035C00084F8449094F94500401C01D184F845905A
:1035D000FFF7DEFB05A9684600F02CF8002820461E
:1035E0000AD0FFF79BFA00F0A7F92046FFF72AF967
:1035F0000028B3D00020CBE7FFF724F990B104F105
:1036000024000599FFF7B0FC2046FFF787FA00F089
:1036100093F90028A2D1C8F80070BFF34F8FBFF311
:103620006F8F9BE72046FFF779FA00F085F995E761
:1036300004ED00E02DE9F0410C46050011D0C4B1C5
:10364000FFF786FB174BDA686E682068911B471CF2
:1036500017D02F681B6A9F4219D0964217D80124B1
:1036600010E0502080F31188BFF34F8FBFF36F8FAE
:10367000FEE7502080F31188BFF34F8FBFF36F8FA9
:10368000FEE70024FFF784FB2046BDE8F081884276
:1036900005D9401A20602846FFF758FCF1E70020C2
:1036A0002060DCE7280000202DE9FF5F8346DDE98C
:1036B0000E87994616468A469000FFF765FA050080
:1036C0001CD05C20FFF760FA040014D000202563B2
:1036D00084F85900CDE90240CDE900874B463246D7
:1036E00051465846FFF714F82046FEF7B1FE012078
:1036F00004B0BDE8F09F2846FFF75EFB4FF0FF30B7
:10370000F6E7F0B585B0DDE90B640A9DA6B1DCB142
:103710005C2700972663022684F85960002604AFD0
:10372000CDE90246CDE90057FEF7F2FF2046FEF74D
:103730008FFE049805B0F0BD502080F31188BFF3D0
:103740004F8FBFF36F8FFEE7502080F31188BFF3D8
:103750004F8FBFF36F8FFEE70548416919B1006BCA
:1037600018B1002070470120704702207047000008
:10377000280000200148C068704700002800002091
:103780002DE9F0412E4C0027206B28B1A069401C88
:10379000A0613846BDE8F081E668761CE66013D18A
:1037A000606B006838B1502080F31188BFF34F8FF1
:1037B000BFF36F8FFEE7606BA16B6163A063206A4C
:1037C000401C2062FFF72AF9A06ADFF87880864261
:1037D00009D3606B0068A0B1606BC068C568686899
:1037E000864211D2A0622068C06A00EB800158F8BE
:1037F0002100012800D90127E0690028C9D001274C
:10380000C7E74FF0FF30EDE7281DFFF745FAA86A3C
:1038100018B105F11800FFF73FFAE86A21698842FC
:1038200000D9206100EB800108EB8100291DFFF722
:1038300083FAE86A2168C96A8842CAD30127C8E7BF
:10384000280000209C02002070B504004FF0000109
:1038500033D01B4D2868844207D0502080F3118854
:10386000BFF34F8FBFF36F8FFEE7206D38B1401E5F
:103870002065E36CE26A9A421FD040B11DE05020FF
:1038800080F31188BFF34F8FBFF36F8FFEE7201DCA
:10389000FFF702FAE06CE062C0F13800A061E06A74
:1038A0002969884200D92861064900EB800001EBB4
:1038B0008000211DFFF740FA0121084670BD00007D
:1038C000280000209C02002070B5C068C46854B174
:1038D00004F118000646FFF7DFF9144D286B50B1CC
:1038E0003146134815E0502080F31188BFF34F8F05
:1038F000BFF36F8FFEE7201DFFF7CEF9E06A29695D
:10390000884200D928610B4900EB800001EB800060
:10391000211DFFF711FAE06A2968C96A884202D9B5
:103920000120E86170BD002070BD0000280000206B
:10393000240700209C0200202DE9F0472C4D002494
:103940002746286B38B1FFF703FA286B401E28631F
:10395000286B40B146E0502080F31188BFF34F8FB1
:10396000BFF36F8FFEE7A968224E0120D1B3A6F501
:10397000916980463068E0B1F068C46804F11800CD
:10398000FFF78AF9201DFFF787F9E06A2969884265
:1039900000D9286100EB800109EB8100211DFFF7B0
:1039A000CBF9E06A2968C96A8842E3D3C5F81C806C
:1039B000E0E70CB1FFF732F8AC694CB14FEA08060A
:1039C000FFF7DEFE00B1EE61641EF9D10020A861B0
:1039D000E86938B10849012738070860BFF34F8FFD
:1039E000BFF36F8FFFF7D4F93846BDE8F0870000CA
:1039F000280000202407002004ED00E010B586B068
:103A0000FEF78EFD114C2068B8B1002003900490A1
:103A100005AA04A903A8FFF75DF9DDE90321022047
:103A20008DE8070000230AA10B48059AFFF769FEFD
:103A3000606010B106B0012010BD502080F31188E5
:103A4000BFF34F8FBFF36F8FFEE7000064000020CD
:103A5000546D722053766300F92A00082DE9FF4166
:103A60001E46134602000A9D4FF0000016D0144C6B
:103A70002768002F0FD0CDE900130292062917DA2C
:103A8000FFF76AFE02284FF000030FD000226946BC
:103A90002068FFF723FC04B0BDE8F081502080F3DC
:103AA0001188BFF34F8FBFF36F8FFEE72A46EEE713
:103AB0000023324669463846FFF7C0FCEBE70000BA
:103AC000640000204FF04070E1EE100A70470000E3
:103AD000883B00080000000000000000000000001B
:103AE00000000000000200002000000000000000B4
:103AF00000000000943B00080000000000000000EF
:103B00000000000000000000000200002000000093
:103B10000000000000000000783B000800000000EA
:103B20000000000000000000000000000002000093
:103B3000200000000000000000000000843B00089E
:103B40000000000000000000000000000000000075
:103B5000000200002800000000000000000000003B
:103B6000000000000000000001020304060708092D
:103B70000000000001020304756C747261736F6EC3
:103B8000696300006C63640064656661756C7454FD
:103B900061736B006164635F636F6C6C6563746910
:103BA0006F6E0000C43B000800000020A800000069
:103BB000C40100086C3C0008A8000020305D000033
:103BC000E00100080000000000000000000000000C
:103BD00000000000000000000000000001000000E4
:103BE00010000000000000000024F40000000000AD
:103BF00000000000000000000000000000000000C5
:103C000000000000000000000000000000000000B4
:103C100000000000000000000000000000000000A4
:103C20000000000000000000000000000000000094
:103C30000000000000000000000000000000000084
:103C40000000000000000000000000000000000074
:103C50000000000000000000000000000000000064
:0C3C600000000000AAAAAAAA00000000B0
:040000050800018965
:00000001FF
